{
  "_format": "hh-sol-artifact-1",
  "contractName": "DataVault",
  "sourceName": "contracts/DataVaultV5.sol",
  "abi": [
    {
      "inputs": [],
      "stateMutability": "nonpayable",
      "type": "constructor"
    },
    {
      "anonymous": false,
      "inputs": [
        {
          "indexed": false,
          "internalType": "address",
          "name": "RegAadhaarAddress",
          "type": "address"
        },
        {
          "indexed": false,
          "internalType": "string",
          "name": "name",
          "type": "string"
        },
        {
          "indexed": false,
          "internalType": "string",
          "name": "AadharSig",
          "type": "string"
        }
      ],
      "name": "AadhaarHolderRegistered",
      "type": "event"
    },
    {
      "anonymous": false,
      "inputs": [
        {
          "indexed": false,
          "internalType": "string",
          "name": "name",
          "type": "string"
        },
        {
          "indexed": false,
          "internalType": "address",
          "name": "regAdmin",
          "type": "address"
        },
        {
          "indexed": false,
          "internalType": "uint256[]",
          "name": "permission",
          "type": "uint256[]"
        }
      ],
      "name": "AgencyRegistered",
      "type": "event"
    },
    {
      "inputs": [
        {
          "internalType": "uint256",
          "name": "id",
          "type": "uint256"
        },
        {
          "internalType": "address",
          "name": "newadminAddress",
          "type": "address"
        }
      ],
      "name": "AddAgencyAdmin",
      "outputs": [],
      "stateMutability": "nonpayable",
      "type": "function"
    },
    {
      "inputs": [
        {
          "internalType": "uint256",
          "name": "id",
          "type": "uint256"
        },
        {
          "internalType": "bool",
          "name": "status",
          "type": "bool"
        }
      ],
      "name": "ApproveAgency",
      "outputs": [
        {
          "internalType": "bool",
          "name": "",
          "type": "bool"
        }
      ],
      "stateMutability": "nonpayable",
      "type": "function"
    },
    {
      "inputs": [
        {
          "internalType": "address",
          "name": "AadharHolderWalletAddress",
          "type": "address"
        }
      ],
      "name": "CheckPermissionAccess",
      "outputs": [
        {
          "internalType": "uint256[][]",
          "name": "",
          "type": "uint256[][]"
        }
      ],
      "stateMutability": "view",
      "type": "function"
    },
    {
      "inputs": [
        {
          "internalType": "uint256",
          "name": "id",
          "type": "uint256"
        },
        {
          "internalType": "address",
          "name": "RegAadhaarAddress",
          "type": "address"
        }
      ],
      "name": "MarkAdminAbsent",
      "outputs": [],
      "stateMutability": "nonpayable",
      "type": "function"
    },
    {
      "inputs": [
        {
          "internalType": "uint256",
          "name": "id",
          "type": "uint256"
        },
        {
          "internalType": "address",
          "name": "RegAadhaarAddress",
          "type": "address"
        }
      ],
      "name": "MarkAdminPresent",
      "outputs": [],
      "stateMutability": "nonpayable",
      "type": "function"
    },
    {
      "inputs": [
        {
          "internalType": "uint256",
          "name": "id",
          "type": "uint256"
        },
        {
          "internalType": "address",
          "name": "RegAadhaarAddress",
          "type": "address"
        }
      ],
      "name": "MarkRegAadhaarAbsent",
      "outputs": [],
      "stateMutability": "nonpayable",
      "type": "function"
    },
    {
      "inputs": [
        {
          "internalType": "uint256",
          "name": "id",
          "type": "uint256"
        },
        {
          "internalType": "address",
          "name": "RegAadhaarAddress",
          "type": "address"
        }
      ],
      "name": "MarkRegAadhaarPresent",
      "outputs": [],
      "stateMutability": "nonpayable",
      "type": "function"
    },
    {
      "inputs": [
        {
          "internalType": "uint256",
          "name": "id",
          "type": "uint256"
        },
        {
          "internalType": "address",
          "name": "AadharHolderWalletAddress",
          "type": "address"
        }
      ],
      "name": "RegisterAadhaarInAgency",
      "outputs": [],
      "stateMutability": "nonpayable",
      "type": "function"
    },
    {
      "inputs": [
        {
          "internalType": "string",
          "name": "name",
          "type": "string"
        },
        {
          "internalType": "uint256[]",
          "name": "permission",
          "type": "uint256[]"
        }
      ],
      "name": "RegisterAgency",
      "outputs": [
        {
          "internalType": "uint256",
          "name": "",
          "type": "uint256"
        }
      ],
      "stateMutability": "nonpayable",
      "type": "function"
    },
    {
      "inputs": [
        {
          "internalType": "string",
          "name": "name",
          "type": "string"
        },
        {
          "internalType": "string",
          "name": "AadharSig",
          "type": "string"
        }
      ],
      "name": "RegisterNewAadhaarHolder",
      "outputs": [
        {
          "internalType": "bool",
          "name": "",
          "type": "bool"
        }
      ],
      "stateMutability": "nonpayable",
      "type": "function"
    },
    {
      "inputs": [],
      "name": "_UIDAI",
      "outputs": [
        {
          "internalType": "address",
          "name": "",
          "type": "address"
        }
      ],
      "stateMutability": "view",
      "type": "function"
    },
    {
      "inputs": [
        {
          "internalType": "uint256",
          "name": "id",
          "type": "uint256"
        }
      ],
      "name": "getAadharHolderData",
      "outputs": [
        {
          "components": [
            {
              "internalType": "address",
              "name": "ssi_address",
              "type": "address"
            },
            {
              "internalType": "string",
              "name": "AadhaarHolderName",
              "type": "string"
            },
            {
              "internalType": "string",
              "name": "AadhaarSignature",
              "type": "string"
            },
            {
              "internalType": "uint256[]",
              "name": "subscribedAgencies",
              "type": "uint256[]"
            }
          ],
          "internalType": "struct AadhaarHolder[]",
          "name": "",
          "type": "tuple[]"
        }
      ],
      "stateMutability": "view",
      "type": "function"
    },
    {
      "inputs": [
        {
          "internalType": "uint256",
          "name": "id",
          "type": "uint256"
        },
        {
          "internalType": "address",
          "name": "AadharHolderWalletAddress",
          "type": "address"
        }
      ],
      "name": "getAadharHolderData",
      "outputs": [
        {
          "components": [
            {
              "internalType": "address",
              "name": "ssi_address",
              "type": "address"
            },
            {
              "internalType": "string",
              "name": "AadhaarHolderName",
              "type": "string"
            },
            {
              "internalType": "string",
              "name": "AadhaarSignature",
              "type": "string"
            },
            {
              "internalType": "uint256[]",
              "name": "subscribedAgencies",
              "type": "uint256[]"
            }
          ],
          "internalType": "struct AadhaarHolder",
          "name": "",
          "type": "tuple"
        }
      ],
      "stateMutability": "view",
      "type": "function"
    },
    {
      "inputs": [],
      "name": "getAllAgencyData",
      "outputs": [
        {
          "internalType": "uint256[]",
          "name": "",
          "type": "uint256[]"
        },
        {
          "internalType": "string[]",
          "name": "",
          "type": "string[]"
        },
        {
          "internalType": "bool[]",
          "name": "",
          "type": "bool[]"
        },
        {
          "internalType": "uint256[][]",
          "name": "",
          "type": "uint256[][]"
        },
        {
          "internalType": "address[][]",
          "name": "",
          "type": "address[][]"
        }
      ],
      "stateMutability": "view",
      "type": "function"
    },
    {
      "inputs": [],
      "name": "getAllAgencyRegAadhaarCount",
      "outputs": [
        {
          "internalType": "uint256[]",
          "name": "",
          "type": "uint256[]"
        }
      ],
      "stateMutability": "view",
      "type": "function"
    },
    {
      "inputs": [
        {
          "internalType": "address",
          "name": "AadharHolderWalletAddress",
          "type": "address"
        }
      ],
      "name": "getMyAadharData",
      "outputs": [
        {
          "components": [
            {
              "internalType": "address",
              "name": "ssi_address",
              "type": "address"
            },
            {
              "internalType": "string",
              "name": "AadhaarHolderName",
              "type": "string"
            },
            {
              "internalType": "string",
              "name": "AadhaarSignature",
              "type": "string"
            },
            {
              "internalType": "uint256[]",
              "name": "subscribedAgencies",
              "type": "uint256[]"
            }
          ],
          "internalType": "struct AadhaarHolder",
          "name": "",
          "type": "tuple"
        }
      ],
      "stateMutability": "view",
      "type": "function"
    }
  ],
  "bytecode": "0x608060405234801561001057600080fd5b506000600181905580546001600160a01b031916331790556122e0806100376000396000f3fe608060405234801561001057600080fd5b50600436106101005760003560e01c80636ee257431161009757806393b9eba11161006657806393b9eba114610255578063be6603b81461011a578063e09802d114610268578063fb1a98ff1461027b57600080fd5b80636ee25743146101e2578063705510bc146101f75780638b3b4f991461020a5780638e8e818f1461022a57600080fd5b806339ecdcf0116100d357806339ecdcf0146101755780635dd7e60b1461019657806368c8c6a4146101af5780636a4b447f146101cf57600080fd5b8063048e67941461010557806322d76edc1461011a578063305fdc2a1461012d5780633897b2e314610155575b600080fd5b610118610113366004611a35565b61028e565b005b610118610128366004611a35565b6103bf565b61014061013b366004611a61565b610470565b60405190151581526020015b60405180910390f35b610168610163366004611a96565b6104c4565b60405161014c9190611b9a565b610188610183366004611cb3565b610640565b60405190815260200161014c565b61019e6107a1565b60405161014c959493929190611e89565b6101c26101bd366004611a35565b610c02565b60405161014c9190611f38565b6101406101dd366004611f52565b610eae565b6101ea610fc0565b60405161014c9190611fb6565b610118610205366004611a35565b611066565b61021d610218366004611fc9565b6112b7565b60405161014c9190611fe4565b60005461023d906001600160a01b031681565b6040516001600160a01b03909116815260200161014c565b6101c2610263366004611fc9565b61142c565b610118610276366004611a35565b611651565b610118610289366004611a35565b6117b3565b60008281526002602081905260409091200154829060ff16151560011480156102e757506001600082815260026020908152604080832033845260060190915290205460ff1660018111156102e5576102e5611ff7565b145b61030c5760405162461bcd60e51b81526004016103039061200d565b60405180910390fd5b60008381526002602052604090206005015460011061036d5760405162461bcd60e51b815260206004820152601a60248201527f41646d696e73206c6973742063616e6e6f74206265207a65726f0000000000006044820152606401610303565b60008381526002602081815260408084206001600160a01b0387168552600681018352908420805460ff191690558684529190526005018054600192906103b59084906120b8565b9091555050505050565b60008281526002602081905260409091200154829060ff161515600114801561041857506001600082815260026020908152604080832033845260060190915290205460ff16600181111561041657610416611ff7565b145b6104345760405162461bcd60e51b81526004016103039061200d565b60008381526002602090815260408083206001600160a01b0386168452600801909152902080546001919060ff191682805b0217905550505050565b600080546001600160a01b0316331461049b5760405162461bcd60e51b8152600401610303906120cf565b506000918252600260208190526040909220909101805460ff1916911515918217905560ff1690565b60008181526002602081905260409091200154606090829060ff161515600114801561052057506001600082815260026020908152604080832033845260060190915290205460ff16600181111561051e5761051e611ff7565b145b61053c5760405162461bcd60e51b81526004016103039061200d565b60008381526002602052604081206007015467ffffffffffffffff81111561056657610566611bfc565b60405190808252806020026020018201604052801561059f57816020015b61058c61185b565b8152602001906001900390816105845790505b50905060005b6000858152600260205260409020600701548110156106365760008581526002602052604090206007018054610606918791849081106105e7576105e7612118565b60009182526020909120600490910201546001600160a01b0316610c02565b82828151811061061857610618612118565b6020026020010181905250808061062e9061212e565b9150506105a5565b5091505b50919050565b600060018060008282546106549190612149565b9091555050600180546000908152600260209081526040909120855161068193919091019186019061188c565b506001805460008181526002602081815260408084209485556004909401805480870182559084528184200180546001600160a01b03191633908117909155855484528484209084526006018152838320805460ff191686179055845483525290812060050180549091906106f7908490612149565b90915550506001546000908152600260209081526040909120835161072492600390920191850190611910565b50600180546000908152600260208190526040808320909101805460ff19169055825482529081902090517fbcbc0a9448d83dfc6a37d59b47e5cc0567553f857ca268803e6a395fa62b97709261078092019033908690612236565b60405180910390a15060015460009081526002602052604090205492915050565b60005460609081908190819081906001600160a01b031633146107d65760405162461bcd60e51b8152600401610303906120cf565b600060015460016107e79190612149565b67ffffffffffffffff8111156107ff576107ff611bfc565b604051908082528060200260200182016040528015610828578160200160208202803683370190505b5090506000600154600161083c9190612149565b67ffffffffffffffff81111561085457610854611bfc565b60405190808252806020026020018201604052801561088757816020015b60608152602001906001900390816108725790505b5090506000600154600161089b9190612149565b67ffffffffffffffff8111156108b3576108b3611bfc565b6040519080825280602002602001820160405280156108dc578160200160208202803683370190505b509050600060015460016108f09190612149565b67ffffffffffffffff81111561090857610908611bfc565b60405190808252806020026020018201604052801561093b57816020015b60608152602001906001900390816109265790505b5090506000600154600161094f9190612149565b67ffffffffffffffff81111561096757610967611bfc565b60405190808252806020026020018201604052801561099a57816020015b60608152602001906001900390816109855790505b50905060015b6001548111610bf05760008181526002602052604090205486518790839081106109cc576109cc612118565b6020026020010181815250506002600082815260200190815260200160002060010180546109f990612161565b80601f0160208091040260200160405190810160405280929190818152602001828054610a2590612161565b8015610a725780601f10610a4757610100808354040283529160200191610a72565b820191906000526020600020905b815481529060010190602001808311610a5557829003601f168201915b5050505050858281518110610a8957610a89612118565b60200260200101819052506002600082815260200190815260200160002060020160009054906101000a900460ff16848281518110610aca57610aca612118565b91151560209283029190910182015260008281526002825260409081902060030180548251818502810185019093528083529192909190830182828015610b3057602002820191906000526020600020905b815481526020019060010190808311610b1c575b5050505050838281518110610b4757610b47612118565b602002602001018190525060026000828152602001908152602001600020600401805480602002602001604051908101604052809291908181526020018280548015610bbc57602002820191906000526020600020905b81546001600160a01b03168152600190910190602001808311610b9e575b5050505050828281518110610bd357610bd3612118565b6020908102919091010152610be9600182612149565b90506109a0565b50939992985090965094509092509050565b610c0a61185b565b60008381526002602081905260409091200154839060ff1615156001148015610c6357506001600082815260026020908152604080832033845260060190915290205460ff166001811115610c6157610c61611ff7565b145b610c7f5760405162461bcd60e51b81526004016103039061200d565b610c8761185b565b60008581526002602052604081206003018054909190610ca957610ca9612118565b906000526020600020015460011415610cda576001600160a01b038085166000908152600360205260409020541681525b600085815260026020526040902060030180546001908110610cfe57610cfe612118565b906000526020600020015460011415610dbe576001600160a01b03841660009081526003602052604090206001018054610d3790612161565b80601f0160208091040260200160405190810160405280929190818152602001828054610d6390612161565b8015610db05780601f10610d8557610100808354040283529160200191610db0565b820191906000526020600020905b815481529060010190602001808311610d9357829003601f168201915b505050505081602001819052505b60026000868152602001908152602001600020600301600281548110610de657610de6612118565b906000526020600020015460011415610ea6576001600160a01b03841660009081526003602052604090206002018054610e1f90612161565b80601f0160208091040260200160405190810160405280929190818152602001828054610e4b90612161565b8015610e985780601f10610e6d57610100808354040283529160200191610e98565b820191906000526020600020905b815481529060010190602001808311610e7b57829003601f168201915b505050505081604001819052505b949350505050565b336000908152600360205260408120546001600160a01b031615610f095760405162461bcd60e51b8152602060048201526012602482015271155cd95c88185b1c9958591e48115e1a5cdd60721b6044820152606401610303565b3360009081526003602090815260409091208451610f2f9260019092019186019061188c565b5033600081815260036020908152604090912080546001600160a01b03191690921782558351610f65926002019185019061188c565b50336000818152600360205260409081902090517fe97258af9ebbc0ed07f959a71ef7e6fe3abc111bb3a90c80d39faa55d537880592610faf929091600182019160020190612274565b60405180910390a150600192915050565b606060006001546001610fd39190612149565b67ffffffffffffffff811115610feb57610feb611bfc565b604051908082528060200260200182016040528015611014578160200160208202803683370190505b50905060015b600154811161063a57600081815260026020526040902060070154825183908390811061104957611049612118565b602090810291909101015261105f600182612149565b905061101a565b60008281526002602081905260409091200154829060ff16151560011480156110bf57506001600082815260026020908152604080832033845260060190915290205460ff1660018111156110bd576110bd611ff7565b145b6110db5760405162461bcd60e51b81526004016103039061200d565b6001600160a01b0380831660009081526003602052604090205483911661113a5760405162461bcd60e51b8152602060048201526013602482015272155cd95c88111bd95cc8139bdd08115e1a5cdd606a1b6044820152606401610303565b600160008581526002602090815260408083206001600160a01b038816845260080190915290205460ff16600181111561117657611176611ff7565b14156111bd5760405162461bcd60e51b8152602060048201526016602482015275111d5c1b1a58d85d1a5bdb881c1c9bda1a589a5d195960521b6044820152606401610303565b60008481526002602090815260408083206001600160a01b0387811685526008820184528285208054600160ff1990911681179091556003855292852060079092018054808501825590865293909420815460049094020180546001600160a01b0319169390941692909217835581810180549293929183019161124090612161565b61124b92919061194a565b50600282018160020190805461126090612161565b61126b92919061194a565b506003828101805461128092840191906119c5565b5050506001600160a01b03909216600090815260036020818152604083209091018054600181018255908352912001929092555050565b6001600160a01b03811660009081526003602081815260408084209092018054835181840281018401909452808452606094939283018282801561131a57602002820191906000526020600020905b815481526020019060010190808311611306575b505050505090506000815167ffffffffffffffff81111561133d5761133d611bfc565b60405190808252806020026020018201604052801561137057816020015b606081526020019060019003908161135b5790505b50905060005b8251811015610636576002600084838151811061139557611395612118565b602002602001015181526020019081526020016000206003018054806020026020016040519081016040528092919081815260200182805480156113f857602002820191906000526020600020905b8154815260200190600101908083116113e4575b505050505082828151811061140f5761140f612118565b6020908102919091010152611425600182612149565b9050611376565b61143461185b565b336001600160a01b0383161461149b5760405162461bcd60e51b815260206004820152602660248201527f4f6e6c7920757365722063616e2061636365737320746865697220656e74697260448201526565206461746160d01b6064820152608401610303565b6001600160a01b0380831660009081526003602090815260409182902082516080810190935280549093168252600183018054929392918401916114de90612161565b80601f016020809104026020016040519081016040528092919081815260200182805461150a90612161565b80156115575780601f1061152c57610100808354040283529160200191611557565b820191906000526020600020905b81548152906001019060200180831161153a57829003601f168201915b5050505050815260200160028201805461157090612161565b80601f016020809104026020016040519081016040528092919081815260200182805461159c90612161565b80156115e95780601f106115be576101008083540402835291602001916115e9565b820191906000526020600020905b8154815290600101906020018083116115cc57829003601f168201915b505050505081526020016003820180548060200260200160405190810160405280929190818152602001828054801561164157602002820191906000526020600020905b81548152602001906001019080831161162d575b5050505050815250509050919050565b60008281526002602081905260409091200154829060ff16151560011480156116aa57506001600082815260026020908152604080832033845260060190915290205460ff1660018111156116a8576116a8611ff7565b145b6116c65760405162461bcd60e51b81526004016103039061200d565b60008381526002602090815260408083206001600160a01b038616845260060190915281205460ff16600181111561170057611700611ff7565b146117405760405162461bcd60e51b815260206004820152601060248201526f4475706c69636174652041646d696e7360801b6044820152606401610303565b6000838152600260208181526040808420600481018054600180820183559187528487200180546001600160a01b0319166001600160a01b038a169081179091558652600682018452918520805460ff1916831790558785529290915260059091018054919290916103b5908490612149565b60008281526002602081905260409091200154829060ff161515600114801561180c57506001600082815260026020908152604080832033845260060190915290205460ff16600181111561180a5761180a611ff7565b145b6118285760405162461bcd60e51b81526004016103039061200d565b60008381526002602090815260408083206001600160a01b03861684526008019091528120805460ff1916600183610466565b604051806080016040528060006001600160a01b031681526020016060815260200160608152602001606081525090565b82805461189890612161565b90600052602060002090601f0160209004810192826118ba5760008555611900565b82601f106118d357805160ff1916838001178555611900565b82800160010185558215611900579182015b828111156119005782518255916020019190600101906118e5565b5061190c929150611a04565b5090565b82805482825590600052602060002090810192821561190057916020028201828111156119005782518255916020019190600101906118e5565b82805461195690612161565b90600052602060002090601f0160209004810192826119785760008555611900565b82601f106119895780548555611900565b8280016001018555821561190057600052602060002091601f016020900482015b828111156119005782548255916001019190600101906119aa565b828054828255906000526020600020908101928215611900576000526020600020918201828111156119005782548255916001019190600101906119aa565b5b8082111561190c5760008155600101611a05565b80356001600160a01b0381168114611a3057600080fd5b919050565b60008060408385031215611a4857600080fd5b82359150611a5860208401611a19565b90509250929050565b60008060408385031215611a7457600080fd5b8235915060208301358015158114611a8b57600080fd5b809150509250929050565b600060208284031215611aa857600080fd5b5035919050565b6000815180845260005b81811015611ad557602081850181015186830182015201611ab9565b81811115611ae7576000602083870101525b50601f01601f19169290920160200192915050565b600081518084526020808501945080840160005b83811015611b2c57815187529582019590820190600101611b10565b509495945050505050565b60018060a01b0381511682526000602082015160806020850152611b5e6080850182611aaf565b905060408301518482036040860152611b778282611aaf565b91505060608301518482036060860152611b918282611afc565b95945050505050565b6000602080830181845280855180835260408601915060408160051b870101925083870160005b82811015611bef57603f19888603018452611bdd858351611b37565b94509285019290850190600101611bc1565b5092979650505050505050565b634e487b7160e01b600052604160045260246000fd5b604051601f8201601f1916810167ffffffffffffffff81118282101715611c3b57611c3b611bfc565b604052919050565b600082601f830112611c5457600080fd5b813567ffffffffffffffff811115611c6e57611c6e611bfc565b611c81601f8201601f1916602001611c12565b818152846020838601011115611c9657600080fd5b816020850160208301376000918101602001919091529392505050565b60008060408385031215611cc657600080fd5b823567ffffffffffffffff80821115611cde57600080fd5b611cea86838701611c43565b9350602091508185013581811115611d0157600080fd5b8501601f81018713611d1257600080fd5b803582811115611d2457611d24611bfc565b8060051b9250611d35848401611c12565b8181529282018401928481019089851115611d4f57600080fd5b928501925b84841015611d6d57833582529285019290850190611d54565b8096505050505050509250929050565b600081518084526020808501945080840160005b83811015611b2c578151151587529582019590820190600101611d91565b600081518084526020808501808196508360051b8101915082860160005b85811015611df7578284038952611de5848351611afc565b98850198935090840190600101611dcd565b5091979650505050505050565b600081518084526020808501808196508360051b810191508286016000805b86811015611e7b578385038a52825180518087529087019087870190845b81811015611e665783516001600160a01b031683529289019291890191600101611e41565b50509a87019a95505091850191600101611e23565b509298975050505050505050565b60a081526000611e9c60a0830188611afc565b6020838203818501528188518084528284019150828160051b850101838b0160005b83811015611eec57601f19878403018552611eda838351611aaf565b94860194925090850190600101611ebe565b50508681036040880152611f00818b611d7d565b9450505050508281036060840152611f188186611daf565b90508281036080840152611f2c8185611e04565b98975050505050505050565b602081526000611f4b6020830184611b37565b9392505050565b60008060408385031215611f6557600080fd5b823567ffffffffffffffff80821115611f7d57600080fd5b611f8986838701611c43565b93506020850135915080821115611f9f57600080fd5b50611fac85828601611c43565b9150509250929050565b602081526000611f4b6020830184611afc565b600060208284031215611fdb57600080fd5b611f4b82611a19565b602081526000611f4b6020830184611daf565b634e487b7160e01b600052602160045260246000fd5b60208082526069908201527f52657665727465642064756520746f20697341646d696e206d6f64696669657260408201527f2e506f737369626c65206361757365203a206d73672e73656e646572206e6f7460608201527f2061646d696e206f72206167656e6379206973206e6f7420617070726f76656460808201526820627920554944414960b81b60a082015260c00190565b634e487b7160e01b600052601160045260246000fd5b6000828210156120ca576120ca6120a2565b500390565b60208082526029908201527f4f6e6c792055494441492063616e207375626d69742074686520617070726f76604082015268616c2053746174757360b81b606082015260800190565b634e487b7160e01b600052603260045260246000fd5b6000600019821415612142576121426120a2565b5060010190565b6000821982111561215c5761215c6120a2565b500190565b600181811c9082168061217557607f821691505b6020821081141561063a57634e487b7160e01b600052602260045260246000fd5b8054600090600181811c90808316806121b057607f831692505b60208084108214156121d257634e487b7160e01b600052602260045260246000fd5b838852602088018280156121ed57600181146121fe57612229565b60ff19871682528282019750612229565b60008981526020902060005b878110156122235781548482015290860190840161220a565b83019850505b5050505050505092915050565b6060815260006122496060830186612196565b6001600160a01b0385166020840152828103604084015261226a8185611afc565b9695505050505050565b6001600160a01b038416815260606020820181905260009061229890830185612196565b828103604084015261226a818561219656fea264697066735822122090bd78ddbc692fccbf9631fbba10c5b2c2a60947441269662aef21a7032041e564736f6c63430008090033",
  "linkReferences": {},
  "deployedLinkReferences": {}
}