{
  "_format": "hh-sol-artifact-1",
  "contractName": "DataVault",
  "sourceName": "contracts/DataVault.sol",
  "abi": [
    {
      "anonymous": false,
      "inputs": [
        {
          "indexed": false,
          "internalType": "uint256",
          "name": "orgid",
          "type": "uint256"
        },
        {
          "indexed": false,
          "internalType": "string",
          "name": "orgname",
          "type": "string"
        }
      ],
      "name": "OrganisationRegistered",
      "type": "event"
    },
    {
      "anonymous": false,
      "inputs": [
        {
          "indexed": true,
          "internalType": "bytes32",
          "name": "role",
          "type": "bytes32"
        },
        {
          "indexed": true,
          "internalType": "bytes32",
          "name": "previousAdminRole",
          "type": "bytes32"
        },
        {
          "indexed": true,
          "internalType": "bytes32",
          "name": "newAdminRole",
          "type": "bytes32"
        }
      ],
      "name": "RoleAdminChanged",
      "type": "event"
    },
    {
      "anonymous": false,
      "inputs": [
        {
          "indexed": true,
          "internalType": "bytes32",
          "name": "role",
          "type": "bytes32"
        },
        {
          "indexed": true,
          "internalType": "address",
          "name": "account",
          "type": "address"
        },
        {
          "indexed": true,
          "internalType": "address",
          "name": "sender",
          "type": "address"
        }
      ],
      "name": "RoleGranted",
      "type": "event"
    },
    {
      "anonymous": false,
      "inputs": [
        {
          "indexed": true,
          "internalType": "bytes32",
          "name": "role",
          "type": "bytes32"
        },
        {
          "indexed": true,
          "internalType": "address",
          "name": "account",
          "type": "address"
        },
        {
          "indexed": true,
          "internalType": "address",
          "name": "sender",
          "type": "address"
        }
      ],
      "name": "RoleRevoked",
      "type": "event"
    },
    {
      "anonymous": false,
      "inputs": [
        {
          "indexed": false,
          "internalType": "address",
          "name": "user",
          "type": "address"
        },
        {
          "indexed": false,
          "internalType": "string",
          "name": "name",
          "type": "string"
        },
        {
          "indexed": false,
          "internalType": "string",
          "name": "AadharRef",
          "type": "string"
        }
      ],
      "name": "UserRegistered",
      "type": "event"
    },
    {
      "inputs": [],
      "name": "DEFAULT_ADMIN_ROLE",
      "outputs": [
        {
          "internalType": "bytes32",
          "name": "",
          "type": "bytes32"
        }
      ],
      "stateMutability": "view",
      "type": "function"
    },
    {
      "inputs": [
        {
          "internalType": "uint256",
          "name": "id",
          "type": "uint256"
        },
        {
          "internalType": "address",
          "name": "admin",
          "type": "address"
        }
      ],
      "name": "addOrgAdmin",
      "outputs": [
        {
          "internalType": "bool",
          "name": "",
          "type": "bool"
        }
      ],
      "stateMutability": "nonpayable",
      "type": "function"
    },
    {
      "inputs": [
        {
          "internalType": "uint256",
          "name": "id",
          "type": "uint256"
        },
        {
          "internalType": "address",
          "name": "user",
          "type": "address"
        }
      ],
      "name": "addOrgUser",
      "outputs": [
        {
          "internalType": "bool",
          "name": "",
          "type": "bool"
        }
      ],
      "stateMutability": "nonpayable",
      "type": "function"
    },
    {
      "inputs": [
        {
          "internalType": "uint256",
          "name": "id",
          "type": "uint256"
        }
      ],
      "name": "getAllOrgAdmins",
      "outputs": [
        {
          "internalType": "address[]",
          "name": "",
          "type": "address[]"
        }
      ],
      "stateMutability": "view",
      "type": "function"
    },
    {
      "inputs": [
        {
          "internalType": "uint256",
          "name": "id",
          "type": "uint256"
        }
      ],
      "name": "getAllOrgUsers",
      "outputs": [
        {
          "internalType": "address[]",
          "name": "",
          "type": "address[]"
        }
      ],
      "stateMutability": "view",
      "type": "function"
    },
    {
      "inputs": [],
      "name": "getAllOrganisations",
      "outputs": [
        {
          "internalType": "uint256[]",
          "name": "",
          "type": "uint256[]"
        }
      ],
      "stateMutability": "view",
      "type": "function"
    },
    {
      "inputs": [],
      "name": "getAllUsers",
      "outputs": [
        {
          "internalType": "address[]",
          "name": "",
          "type": "address[]"
        }
      ],
      "stateMutability": "view",
      "type": "function"
    },
    {
      "inputs": [
        {
          "internalType": "bytes32",
          "name": "role",
          "type": "bytes32"
        }
      ],
      "name": "getRoleAdmin",
      "outputs": [
        {
          "internalType": "bytes32",
          "name": "",
          "type": "bytes32"
        }
      ],
      "stateMutability": "view",
      "type": "function"
    },
    {
      "inputs": [
        {
          "internalType": "address",
          "name": "a",
          "type": "address"
        }
      ],
      "name": "getUser",
      "outputs": [
        {
          "components": [
            {
              "internalType": "string",
              "name": "name",
              "type": "string"
            },
            {
              "internalType": "address",
              "name": "ad",
              "type": "address"
            },
            {
              "internalType": "string",
              "name": "AadharRef",
              "type": "string"
            }
          ],
          "internalType": "struct user",
          "name": "",
          "type": "tuple"
        }
      ],
      "stateMutability": "view",
      "type": "function"
    },
    {
      "inputs": [
        {
          "internalType": "address",
          "name": "a",
          "type": "address"
        }
      ],
      "name": "getUserAadharRef",
      "outputs": [
        {
          "internalType": "string",
          "name": "",
          "type": "string"
        }
      ],
      "stateMutability": "view",
      "type": "function"
    },
    {
      "inputs": [
        {
          "internalType": "bytes32",
          "name": "role",
          "type": "bytes32"
        },
        {
          "internalType": "address",
          "name": "account",
          "type": "address"
        }
      ],
      "name": "grantRole",
      "outputs": [],
      "stateMutability": "nonpayable",
      "type": "function"
    },
    {
      "inputs": [
        {
          "internalType": "bytes32",
          "name": "role",
          "type": "bytes32"
        },
        {
          "internalType": "address",
          "name": "account",
          "type": "address"
        }
      ],
      "name": "hasRole",
      "outputs": [
        {
          "internalType": "bool",
          "name": "",
          "type": "bool"
        }
      ],
      "stateMutability": "view",
      "type": "function"
    },
    {
      "inputs": [
        {
          "internalType": "uint256",
          "name": "id",
          "type": "uint256"
        },
        {
          "internalType": "address",
          "name": "user",
          "type": "address"
        }
      ],
      "name": "isUserRegisteredForOrganization",
      "outputs": [
        {
          "internalType": "bool",
          "name": "",
          "type": "bool"
        }
      ],
      "stateMutability": "view",
      "type": "function"
    },
    {
      "inputs": [
        {
          "internalType": "string",
          "name": "org_name",
          "type": "string"
        }
      ],
      "name": "registerOrganisation",
      "outputs": [
        {
          "internalType": "uint256",
          "name": "",
          "type": "uint256"
        }
      ],
      "stateMutability": "nonpayable",
      "type": "function"
    },
    {
      "inputs": [
        {
          "internalType": "string",
          "name": "name",
          "type": "string"
        },
        {
          "internalType": "string",
          "name": "AadharRef",
          "type": "string"
        }
      ],
      "name": "registerUser",
      "outputs": [
        {
          "internalType": "address",
          "name": "",
          "type": "address"
        }
      ],
      "stateMutability": "nonpayable",
      "type": "function"
    },
    {
      "inputs": [
        {
          "internalType": "string",
          "name": "name",
          "type": "string"
        }
      ],
      "name": "registerUser",
      "outputs": [
        {
          "internalType": "address",
          "name": "",
          "type": "address"
        }
      ],
      "stateMutability": "nonpayable",
      "type": "function"
    },
    {
      "inputs": [
        {
          "internalType": "bytes32",
          "name": "role",
          "type": "bytes32"
        },
        {
          "internalType": "address",
          "name": "account",
          "type": "address"
        }
      ],
      "name": "renounceRole",
      "outputs": [],
      "stateMutability": "nonpayable",
      "type": "function"
    },
    {
      "inputs": [
        {
          "internalType": "bytes32",
          "name": "role",
          "type": "bytes32"
        },
        {
          "internalType": "address",
          "name": "account",
          "type": "address"
        }
      ],
      "name": "revokeRole",
      "outputs": [],
      "stateMutability": "nonpayable",
      "type": "function"
    },
    {
      "inputs": [
        {
          "internalType": "bytes4",
          "name": "interfaceId",
          "type": "bytes4"
        }
      ],
      "name": "supportsInterface",
      "outputs": [
        {
          "internalType": "bool",
          "name": "",
          "type": "bool"
        }
      ],
      "stateMutability": "view",
      "type": "function"
    }
  ],
  "bytecode": "0x608060405234801561001057600080fd5b506117b8806100206000396000f3fe608060405234801561001057600080fd5b50600436106101215760003560e01c806336568abe116100ad578063b163e03d11610071578063b163e03d14610299578063b978dd5a146102ae578063d547741f146102c1578063e2842d79146102d4578063ec31bdf3146102dc57600080fd5b806336568abe146102385780636f77926b1461024b578063704f1b941461026b57806391d148541461027e578063a217fddf1461029157600080fd5b8063248a9ca3116100f4578063248a9ca3146101ad57806328246424146101d05780632c6e4da8146101f05780632f2ff15d1461021057806332b7c0fb1461022557600080fd5b806301ffc9a71461012657806308eb13961461014e5780631c00e6d1146101615780631d2e4afd14610182575b600080fd5b61013961013436600461115d565b6102ef565b60405190151581526020015b60405180910390f35b61013961015c3660046111a3565b610326565b61017461016f366004611272565b61042f565b604051908152602001610145565b6101956101903660046112af565b610588565b6040516001600160a01b039091168152602001610145565b6101746101bb366004611313565b60009081526020819052604090206001015490565b6101e36101de36600461132c565b6106bd565b60405161014591906113a3565b6102036101fe366004611313565b61076c565b60405161014591906113b6565b61022361021e3660046111a3565b6107da565b005b610203610233366004611313565b610804565b6102236102463660046111a3565b610871565b61025e61025936600461132c565b6108ef565b6040516101459190611403565b610195610279366004611272565b610a6f565b61013961028c3660046111a3565b610bc2565b610174600081565b6102a1610beb565b604051610145919061145b565b6101396102bc3660046111a3565b610c43565b6102236102cf3660046111a3565b610cfc565b610203610d21565b6101396102ea3660046111a3565b610d82565b60006001600160e01b03198216637965db0b60e01b148061032057506301ffc9a760e01b6001600160e01b03198316145b92915050565b60008233301480156103655750600081815260016020818152604080842033855260030190915282205460ff169081111561036357610363611493565b145b61038a5760405162461bcd60e51b8152600401610381906114a9565b60405180910390fd5b60008481526001602081815260408084206001600160a01b03881680865260028083018552838720805460ff19169055600490920180549586018155865283862090940180546001600160a01b0319168517905592845260039091529182902091517f92822564bab8864c3a47b34e8d23fbce5c46234eb5da261f94087b995ac0f33b9261041d928792908201906115c9565b60405180910390a15060019392505050565b6002805460019081018083556000928352829161044b9161161f565b60008181526001602090815260409091208551929350339261046f928701906110c4565b50600280546000848152600160208181526040808420808401959095556001600160a01b0387168085528587018352818520805460ff19908116909155600387018452918520805490921690915582825260048501805480850182559085528285200180546001600160a01b03199081168317909155600590950180549384018155845292200180549092161790558054908382811061051157610511611636565b90600052602060002001819055507fc558a3b417381c2f04edd73f7f27dc40e1e6183dc003e6472e7e21e47d9929c960016000848152602001908152602001600020600101548560405161056692919061164c565b60405180910390a1506000908152600160208190526040909120015492915050565b600480546001908101808355600092835282916105a49161161f565b336000818152600360209081526040909120875193945091926105ca92918801906110c4565b506001600160a01b03811660008181526003602090815260409091206001810180546001600160a01b031916909317909255855161060e92600201918701906110c4565b50806004838154811061062357610623611636565b9060005260206000200160006101000a8154816001600160a01b0302191690836001600160a01b031602179055507f92822564bab8864c3a47b34e8d23fbce5c46234eb5da261f94087b995ac0f33b81868660405161068493929190611665565b60405180910390a16004828154811061069f5761069f611636565b6000918252602090912001546001600160a01b031695945050505050565b6001600160a01b03811660009081526003602052604090206002018054606091906106e7906114ee565b80601f0160208091040260200160405190810160405280929190818152602001828054610713906114ee565b80156107605780601f1061073557610100808354040283529160200191610760565b820191906000526020600020905b81548152906001019060200180831161074357829003601f168201915b50505050509050919050565b60008181526001602090815260409182902060040180548351818402810184019094528084526060939283018282801561076057602002820191906000526020600020905b81546001600160a01b031681526001909101906020018083116107b15750505050509050919050565b6000828152602081905260409020600101546107f581610dc7565b6107ff8383610dd4565b505050565b600081815260016020908152604091829020600501805483518184028101840190945280845260609392830182828015610760576020028201919060005260206000209081546001600160a01b031681526001909101906020018083116107b15750505050509050919050565b6001600160a01b03811633146108e15760405162461bcd60e51b815260206004820152602f60248201527f416363657373436f6e74726f6c3a2063616e206f6e6c792072656e6f756e636560448201526e103937b632b9903337b91039b2b63360891b6064820152608401610381565b6108eb8282610e58565b5050565b604080516060808201835280825260006020830152918101919091526001600160a01b0382166000908152600360205260409081902081516060810190925280548290829061093d906114ee565b80601f0160208091040260200160405190810160405280929190818152602001828054610969906114ee565b80156109b65780601f1061098b576101008083540402835291602001916109b6565b820191906000526020600020905b81548152906001019060200180831161099957829003601f168201915b505050918352505060018201546001600160a01b031660208201526002820180546040909201916109e6906114ee565b80601f0160208091040260200160405190810160405280929190818152602001828054610a12906114ee565b8015610a5f5780601f10610a3457610100808354040283529160200191610a5f565b820191906000526020600020905b815481529060010190602001808311610a4257829003601f168201915b5050505050815250509050919050565b60048054600190810180835560009283528291610a8b9161161f565b33600081815260036020908152604090912086519394509192610ab192918701906110c4565b506001600160a01b03811660008181526003602081815260408084206001810180546001600160a01b03191687179055815180840192839052858152959094529190529151610b0692600290920191906110c4565b508060048381548110610b1b57610b1b611636565b600091825260208083209190910180546001600160a01b0319166001600160a01b039485161790559183168152600390915260409081902090517f92822564bab8864c3a47b34e8d23fbce5c46234eb5da261f94087b995ac0f33b91610b8a918491889160029091019061169b565b60405180910390a160048281548110610ba557610ba5611636565b6000918252602090912001546001600160a01b0316949350505050565b6000918252602082815260408084206001600160a01b0393909316845291905290205460ff1690565b60606002805480602002602001604051908101604052809291908181526020018280548015610c3957602002820191906000526020600020905b815481526020019060010190808311610c25575b5050505050905090565b6000823330148015610c825750600081815260016020818152604080842033855260030190915282205460ff1690811115610c8057610c80611493565b145b610c9e5760405162461bcd60e51b8152600401610381906114a9565b505060009182526001602081815260408085206001600160a01b0394909416808652600385018352908520805460ff19169055828252600590930180548084018255908552932090920180546001600160a01b031916909117905590565b600082815260208190526040902060010154610d1781610dc7565b6107ff8383610e58565b60606004805480602002602001604051908101604052809291908181526020018280548015610c3957602002820191906000526020600020905b81546001600160a01b03168152600190910190602001808311610d5b575050505050905090565b60008060008481526001602081815260408084206001600160a01b03881685526002019091529091205460ff1690811115610dbf57610dbf611493565b149392505050565b610dd18133610ebd565b50565b610dde8282610bc2565b6108eb576000828152602081815260408083206001600160a01b03851684529091529020805460ff19166001179055610e143390565b6001600160a01b0316816001600160a01b0316837f2f8788117e7eff1d82e926ec794901d17c78024a50270940304540a733656f0d60405160405180910390a45050565b610e628282610bc2565b156108eb576000828152602081815260408083206001600160a01b0385168085529252808320805460ff1916905551339285917ff6391f5c32d9c69d2a47ea670b442974b53935d1edc7fd64eb21e047a839171b9190a45050565b610ec78282610bc2565b6108eb57610edf816001600160a01b03166014610f21565b610eea836020610f21565b604051602001610efb9291906116bf565b60408051601f198184030181529082905262461bcd60e51b8252610381916004016113a3565b60606000610f30836002611734565b610f3b906002611753565b67ffffffffffffffff811115610f5357610f536111cf565b6040519080825280601f01601f191660200182016040528015610f7d576020820181803683370190505b509050600360fc1b81600081518110610f9857610f98611636565b60200101906001600160f81b031916908160001a905350600f60fb1b81600181518110610fc757610fc7611636565b60200101906001600160f81b031916908160001a9053506000610feb846002611734565b610ff6906001611753565b90505b600181111561106e576f181899199a1a9b1b9c1cb0b131b232b360811b85600f166010811061102a5761102a611636565b1a60f81b82828151811061104057611040611636565b60200101906001600160f81b031916908160001a90535060049490941c936110678161176b565b9050610ff9565b5083156110bd5760405162461bcd60e51b815260206004820181905260248201527f537472696e67733a20686578206c656e67746820696e73756666696369656e746044820152606401610381565b9392505050565b8280546110d0906114ee565b90600052602060002090601f0160209004810192826110f25760008555611138565b82601f1061110b57805160ff1916838001178555611138565b82800160010185558215611138579182015b8281111561113857825182559160200191906001019061111d565b50611144929150611148565b5090565b5b808211156111445760008155600101611149565b60006020828403121561116f57600080fd5b81356001600160e01b0319811681146110bd57600080fd5b80356001600160a01b038116811461119e57600080fd5b919050565b600080604083850312156111b657600080fd5b823591506111c660208401611187565b90509250929050565b634e487b7160e01b600052604160045260246000fd5b600082601f8301126111f657600080fd5b813567ffffffffffffffff80821115611211576112116111cf565b604051601f8301601f19908116603f01168101908282118183101715611239576112396111cf565b8160405283815286602085880101111561125257600080fd5b836020870160208301376000602085830101528094505050505092915050565b60006020828403121561128457600080fd5b813567ffffffffffffffff81111561129b57600080fd5b6112a7848285016111e5565b949350505050565b600080604083850312156112c257600080fd5b823567ffffffffffffffff808211156112da57600080fd5b6112e6868387016111e5565b935060208501359150808211156112fc57600080fd5b50611309858286016111e5565b9150509250929050565b60006020828403121561132557600080fd5b5035919050565b60006020828403121561133e57600080fd5b6110bd82611187565b60005b8381101561136257818101518382015260200161134a565b83811115611371576000848401525b50505050565b6000815180845261138f816020860160208601611347565b601f01601f19169290920160200192915050565b6020815260006110bd6020830184611377565b6020808252825182820181905260009190848201906040850190845b818110156113f75783516001600160a01b0316835292840192918401916001016113d2565b50909695505050505050565b60208152600082516060602084015261141f6080840182611377565b60208501516001600160a01b0316604085810191909152850151848203601f190160608601529091506114528282611377565b95945050505050565b6020808252825182820181905260009190848201906040850190845b818110156113f757835183529284019291840191600101611477565b634e487b7160e01b600052602160045260246000fd5b60208082526025908201527f55736572204e6f7420616e20416374697665204f7267616e69736174696f6e2060408201526420b236b4b760d91b606082015260800190565b600181811c9082168061150257607f821691505b6020821081141561152357634e487b7160e01b600052602260045260246000fd5b50919050565b8054600090600181811c908083168061154357607f831692505b602080841082141561156557634e487b7160e01b600052602260045260246000fd5b838852602088018280156115805760018114611591576115bc565b60ff198716825282820197506115bc565b60008981526020902060005b878110156115b65781548482015290860190840161159d565b83019850505b5050505050505092915050565b6001600160a01b03841681526060602082018190526000906115ed90830185611529565b82810360408401526115ff8185611529565b9695505050505050565b634e487b7160e01b600052601160045260246000fd5b60008282101561163157611631611609565b500390565b634e487b7160e01b600052603260045260246000fd5b8281526040602082015260006112a76040830184611377565b6001600160a01b038416815260606020820181905260009061168990830185611377565b82810360408401526115ff8185611377565b6001600160a01b03841681526060602082018190526000906115ed90830185611377565b7f416363657373436f6e74726f6c3a206163636f756e74200000000000000000008152600083516116f7816017850160208801611347565b7001034b99036b4b9b9b4b733903937b6329607d1b6017918401918201528351611728816028840160208801611347565b01602801949350505050565b600081600019048311821515161561174e5761174e611609565b500290565b6000821982111561176657611766611609565b500190565b60008161177a5761177a611609565b50600019019056fea2646970667358221220169398233bb09f98ae738e9dc135dd3966b5e176a0ac2220912c32f99fc7b77364736f6c63430008090033",
  "linkReferences": {},
  "deployedLinkReferences": {}
}