{
  "_format": "hh-sol-artifact-1",
  "contractName": "DataVault",
  "sourceName": "contracts/DataVaultV4.sol",
  "abi": [
    {
      "inputs": [],
      "stateMutability": "nonpayable",
      "type": "constructor"
    },
    {
      "anonymous": false,
      "inputs": [
        {
          "indexed": false,
          "internalType": "address",
          "name": "RegAadhaarAddress",
          "type": "address"
        },
        {
          "indexed": false,
          "internalType": "string",
          "name": "name",
          "type": "string"
        },
        {
          "indexed": false,
          "internalType": "string",
          "name": "AadharSig",
          "type": "string"
        }
      ],
      "name": "AadhaarHolderRegistered",
      "type": "event"
    },
    {
      "anonymous": false,
      "inputs": [
        {
          "indexed": false,
          "internalType": "string",
          "name": "name",
          "type": "string"
        },
        {
          "indexed": false,
          "internalType": "address",
          "name": "regAdmin",
          "type": "address"
        }
      ],
      "name": "AgencyRegistered",
      "type": "event"
    },
    {
      "inputs": [
        {
          "internalType": "uint256",
          "name": "id",
          "type": "uint256"
        },
        {
          "internalType": "address",
          "name": "newadminAddress",
          "type": "address"
        }
      ],
      "name": "AddAgencyAdmin",
      "outputs": [],
      "stateMutability": "nonpayable",
      "type": "function"
    },
    {
      "inputs": [
        {
          "internalType": "uint256",
          "name": "id",
          "type": "uint256"
        },
        {
          "internalType": "address",
          "name": "RegAadhaarAddress",
          "type": "address"
        }
      ],
      "name": "MarkAdminAbsent",
      "outputs": [],
      "stateMutability": "nonpayable",
      "type": "function"
    },
    {
      "inputs": [
        {
          "internalType": "uint256",
          "name": "id",
          "type": "uint256"
        },
        {
          "internalType": "address",
          "name": "RegAadhaarAddress",
          "type": "address"
        }
      ],
      "name": "MarkAdminPresent",
      "outputs": [],
      "stateMutability": "nonpayable",
      "type": "function"
    },
    {
      "inputs": [
        {
          "internalType": "uint256",
          "name": "id",
          "type": "uint256"
        },
        {
          "internalType": "address",
          "name": "RegAadhaarAddress",
          "type": "address"
        }
      ],
      "name": "MarkRegAadhaarAbsent",
      "outputs": [],
      "stateMutability": "nonpayable",
      "type": "function"
    },
    {
      "inputs": [
        {
          "internalType": "uint256",
          "name": "id",
          "type": "uint256"
        },
        {
          "internalType": "address",
          "name": "RegAadhaarAddress",
          "type": "address"
        }
      ],
      "name": "MarkRegAadhaarPresent",
      "outputs": [],
      "stateMutability": "nonpayable",
      "type": "function"
    },
    {
      "inputs": [
        {
          "internalType": "address",
          "name": "",
          "type": "address"
        }
      ],
      "name": "RegAadhaarHolders",
      "outputs": [
        {
          "internalType": "address",
          "name": "ssi_address",
          "type": "address"
        },
        {
          "internalType": "string",
          "name": "AadhaarHolderName",
          "type": "string"
        },
        {
          "internalType": "string",
          "name": "AadhaarSignature",
          "type": "string"
        }
      ],
      "stateMutability": "view",
      "type": "function"
    },
    {
      "inputs": [
        {
          "internalType": "uint256",
          "name": "",
          "type": "uint256"
        }
      ],
      "name": "RegAgencies",
      "outputs": [
        {
          "internalType": "uint256",
          "name": "agencyID",
          "type": "uint256"
        },
        {
          "internalType": "string",
          "name": "agency_name",
          "type": "string"
        }
      ],
      "stateMutability": "view",
      "type": "function"
    },
    {
      "inputs": [
        {
          "internalType": "uint256",
          "name": "id",
          "type": "uint256"
        },
        {
          "internalType": "address",
          "name": "AadharHolderWalletAddress",
          "type": "address"
        }
      ],
      "name": "RegisterAadhaarInAgency",
      "outputs": [],
      "stateMutability": "nonpayable",
      "type": "function"
    },
    {
      "inputs": [
        {
          "internalType": "string",
          "name": "name",
          "type": "string"
        }
      ],
      "name": "RegisterAgency",
      "outputs": [
        {
          "internalType": "uint256",
          "name": "",
          "type": "uint256"
        }
      ],
      "stateMutability": "nonpayable",
      "type": "function"
    },
    {
      "inputs": [
        {
          "internalType": "string",
          "name": "name",
          "type": "string"
        },
        {
          "internalType": "string",
          "name": "AadharSig",
          "type": "string"
        }
      ],
      "name": "RegisterNewAadhaarHolder",
      "outputs": [
        {
          "internalType": "bool",
          "name": "",
          "type": "bool"
        }
      ],
      "stateMutability": "nonpayable",
      "type": "function"
    },
    {
      "inputs": [
        {
          "internalType": "uint256",
          "name": "id",
          "type": "uint256"
        }
      ],
      "name": "getAllAadharInAgency",
      "outputs": [
        {
          "components": [
            {
              "internalType": "address",
              "name": "ssi_address",
              "type": "address"
            },
            {
              "internalType": "string",
              "name": "AadhaarHolderName",
              "type": "string"
            },
            {
              "internalType": "string",
              "name": "AadhaarSignature",
              "type": "string"
            }
          ],
          "internalType": "struct AadhaarHolder[]",
          "name": "",
          "type": "tuple[]"
        }
      ],
      "stateMutability": "view",
      "type": "function"
    },
    {
      "inputs": [
        {
          "internalType": "uint256",
          "name": "id",
          "type": "uint256"
        }
      ],
      "name": "getAllAgencyAdmins",
      "outputs": [
        {
          "internalType": "address[]",
          "name": "",
          "type": "address[]"
        }
      ],
      "stateMutability": "view",
      "type": "function"
    }
  ],
  "bytecode": "0x608060405234801561001057600080fd5b50600080556111fb806100246000396000f3fe608060405234801561001057600080fd5b50600436106100b45760003560e01c8063ad360dea11610071578063ad360dea14610161578063b0d0354414610183578063be6603b8146100ce578063cc5f12c4146101a3578063e09802d1146101c4578063fb1a98ff146101d757600080fd5b8063048e6794146100b957806322d76edc146100ce57806369356f57146100e15780636a4b447f1461010a578063705510bc1461012d5780637e554f3a14610140575b600080fd5b6100cc6100c7366004610ced565b6101ea565b005b6100cc6100dc366004610ced565b61029c565b6100f46100ef366004610d19565b610323565b6040516101019190610d7f565b60405180910390f35b61011d610118366004610ebe565b6104d2565b6040519015158152602001610101565b6100cc61013b366004610ced565b6105e4565b61015361014e366004610f22565b61074c565b604051908152602001610101565b61017461016f366004610f5f565b61083d565b60405161010193929190610f81565b610196610191366004610d19565b61097a565b6040516101019190610fc1565b6101b66101b1366004610d19565b6109e9565b60405161010192919061100e565b6100cc6101d2366004610ced565b610a8e565b6100cc6101e5366004610ced565b610b39565b816001600082815260026020908152604080832033845260040190915290205460ff16600181111561021e5761021e611027565b146102445760405162461bcd60e51b815260040161023b9061103d565b60405180910390fd5b6000838152600260208190526040909120015460011061026357600080fd5b60008381526002602090815260408083206001600160a01b03861684526004019091528120805460ff19166001835b0217905550505050565b816001600082815260026020908152604080832033845260040190915290205460ff1660018111156102d0576102d0611027565b146102ed5760405162461bcd60e51b815260040161023b9061103d565b60008381526002602090815260408083206001600160a01b0386168452600501909152902080546001919060ff19168280610292565b606060026000838152602001908152602001600020600301805480602002602001604051908101604052809291908181526020016000905b828210156104c757600084815260209081902060408051606081019091526003850290910180546001600160a01b0316825260018101805492939192918401916103a490611064565b80601f01602080910402602001604051908101604052809291908181526020018280546103d090611064565b801561041d5780601f106103f25761010080835404028352916020019161041d565b820191906000526020600020905b81548152906001019060200180831161040057829003601f168201915b5050505050815260200160028201805461043690611064565b80601f016020809104026020016040519081016040528092919081815260200182805461046290611064565b80156104af5780601f10610484576101008083540402835291602001916104af565b820191906000526020600020905b81548152906001019060200180831161049257829003601f168201915b5050505050815250508152602001906001019061035b565b505050509050919050565b336000908152600360205260408120546001600160a01b03161561052d5760405162461bcd60e51b8152602060048201526012602482015271155cd95c88185b1c9958591e48115e1a5cdd60721b604482015260640161023b565b336000908152600360209081526040909120845161055392600190920191860190610bbd565b5033600081815260036020908152604090912080546001600160a01b031916909217825583516105899260020191850190610bbd565b50336000818152600360205260409081902090517fe97258af9ebbc0ed07f959a71ef7e6fe3abc111bb3a90c80d39faa55d5378805926105d392909160018201916002019061113f565b60405180910390a150600192915050565b816001600082815260026020908152604080832033845260040190915290205460ff16600181111561061857610618611027565b146106355760405162461bcd60e51b815260040161023b9061103d565b6001600160a01b038083166000908152600360205260409020548391166106945760405162461bcd60e51b8152602060048201526013602482015272155cd95c88111bd95cc8139bdd08115e1a5cdd606a1b604482015260640161023b565b60008481526002602090815260408083206001600160a01b0387811685526005820184528285208054600160ff1990911681179091556003808652938620928401805480830182559087529490952082549490930290920180546001600160a01b031916939092169290921781558183018054929391929183019161071890611064565b610723929190610c41565b50600282018160020190805461073890611064565b610743929190610c41565b50505050505050565b600060016000808282546107609190611175565b9091555050600080548152600260209081526040909120835161078b92600190920191850190610bbd565b50600080548082526002602081815260408085209384559282018054600180820183559186528286200180546001600160a01b03191633908117909155855486528486208187526004018352848620805460ff19168317905585548652929091529282902091517f96029bb354ac82cc11441201f52cfbc3a6a4f211c0be31fe9da5955b1885dd12936108209301919061119b565b60405180910390a150506000805481526002602052604090205490565b600360205260009081526040902080546001820180546001600160a01b03909216929161086990611064565b80601f016020809104026020016040519081016040528092919081815260200182805461089590611064565b80156108e25780601f106108b7576101008083540402835291602001916108e2565b820191906000526020600020905b8154815290600101906020018083116108c557829003601f168201915b5050505050908060020180546108f790611064565b80601f016020809104026020016040519081016040528092919081815260200182805461092390611064565b80156109705780601f1061094557610100808354040283529160200191610970565b820191906000526020600020905b81548152906001019060200180831161095357829003601f168201915b5050505050905083565b6000818152600260208181526040928390209091018054835181840281018401909452808452606093928301828280156109dd57602002820191906000526020600020905b81546001600160a01b031681526001909101906020018083116109bf575b50505050509050919050565b60026020526000908152604090208054600182018054919291610a0b90611064565b80601f0160208091040260200160405190810160405280929190818152602001828054610a3790611064565b8015610a845780601f10610a5957610100808354040283529160200191610a84565b820191906000526020600020905b815481529060010190602001808311610a6757829003601f168201915b5050505050905082565b816001600082815260026020908152604080832033845260040190915290205460ff166001811115610ac257610ac2611027565b14610adf5760405162461bcd60e51b815260040161023b9061103d565b60008381526002602081815260408084209283018054600180820183559186528386200180546001600160a01b0319166001600160a01b03891690811790915585526004909301909152909120805460ff19168280610292565b816001600082815260026020908152604080832033845260040190915290205460ff166001811115610b6d57610b6d611027565b14610b8a5760405162461bcd60e51b815260040161023b9061103d565b60008381526002602090815260408083206001600160a01b03861684526005019091528120805460ff1916600183610292565b828054610bc990611064565b90600052602060002090601f016020900481019282610beb5760008555610c31565b82601f10610c0457805160ff1916838001178555610c31565b82800160010185558215610c31579182015b82811115610c31578251825591602001919060010190610c16565b50610c3d929150610cbc565b5090565b828054610c4d90611064565b90600052602060002090601f016020900481019282610c6f5760008555610c31565b82601f10610c805780548555610c31565b82800160010185558215610c3157600052602060002091601f016020900482015b82811115610c31578254825591600101919060010190610ca1565b5b80821115610c3d5760008155600101610cbd565b80356001600160a01b0381168114610ce857600080fd5b919050565b60008060408385031215610d0057600080fd5b82359150610d1060208401610cd1565b90509250929050565b600060208284031215610d2b57600080fd5b5035919050565b6000815180845260005b81811015610d5857602081850181015186830182015201610d3c565b81811115610d6a576000602083870101525b50601f01601f19169290920160200192915050565b60006020808301818452808551808352604092508286019150828160051b87010184880160005b83811015610e0d57888303603f19018552815180516001600160a01b0316845287810151606089860181905290610ddf82870182610d32565b91505087820151915084810388860152610df98183610d32565b968901969450505090860190600101610da6565b509098975050505050505050565b634e487b7160e01b600052604160045260246000fd5b600082601f830112610e4257600080fd5b813567ffffffffffffffff80821115610e5d57610e5d610e1b565b604051601f8301601f19908116603f01168101908282118183101715610e8557610e85610e1b565b81604052838152866020858801011115610e9e57600080fd5b836020870160208301376000602085830101528094505050505092915050565b60008060408385031215610ed157600080fd5b823567ffffffffffffffff80821115610ee957600080fd5b610ef586838701610e31565b93506020850135915080821115610f0b57600080fd5b50610f1885828601610e31565b9150509250929050565b600060208284031215610f3457600080fd5b813567ffffffffffffffff811115610f4b57600080fd5b610f5784828501610e31565b949350505050565b600060208284031215610f7157600080fd5b610f7a82610cd1565b9392505050565b6001600160a01b0384168152606060208201819052600090610fa590830185610d32565b8281036040840152610fb78185610d32565b9695505050505050565b6020808252825182820181905260009190848201906040850190845b818110156110025783516001600160a01b031683529284019291840191600101610fdd565b50909695505050505050565b828152604060208201526000610f576040830184610d32565b634e487b7160e01b600052602160045260246000fd5b6020808252600d908201526c1058d8d95cdcc819195b9a5959609a1b604082015260600190565b600181811c9082168061107857607f821691505b6020821081141561109957634e487b7160e01b600052602260045260246000fd5b50919050565b8054600090600181811c90808316806110b957607f831692505b60208084108214156110db57634e487b7160e01b600052602260045260246000fd5b838852602088018280156110f6576001811461110757611132565b60ff19871682528282019750611132565b60008981526020902060005b8781101561112c57815484820152908601908401611113565b83019850505b5050505050505092915050565b6001600160a01b03841681526060602082018190526000906111639083018561109f565b8281036040840152610fb7818561109f565b6000821982111561119657634e487b7160e01b600052601160045260246000fd5b500190565b6040815260006111ae604083018561109f565b905060018060a01b0383166020830152939250505056fea2646970667358221220fc2e054cae5f1397693a5f85d5f821c0a8afce94e826b9f6772ab43bdf96ba9e64736f6c63430008090033",
  "linkReferences": {},
  "deployedLinkReferences": {}
}